:020000023000CC
:10F000000D9472F80D948EF80D948EF80D948EF880
:10F010000D948EF80D948EF80D948EF80D948EF854
:10F020000D948EF80D948EF80D948EF80D948EF844
:10F030000D948EF80D948EF80D948EF80D948EF834
:10F040000D948EF80D948EF80D948EF80D948EF824
:10F050000D948EF80D948EF80D948EF80D948EF814
:10F060000D948EF80D948EF80D948EF80D948EF804
:10F070000D948EF80D948EF80D948EF80D948EF8F4
:10F080000D948EF80D948EF80D948EF80D948EF8E4
:10F090000D948EF80D948EF80D948EF80D948EF8D4
:10F0A0000D948EF80D948EF80D948EF80D948EF8C4
:10F0B0000D948EF80D948EF80D948EF80D948EF8B4
:10F0C0000D948EF80D948EF80D948EF80D948EF8A4
:10F0D0000D948EF80D948EF80D948EF80D948EF894
:10F0E0000D948EF811241FBE01E00CBFCFEFD1E2CA
:10F0F000DEBFCDBF22E0A0E0B2E001C01D92A23091
:10F10000B207E1F701E20EBF0FEF0DBF11241FBEE2
:10F110000D94ABF80F94ABF80D94E5FB0D9400F84B
:10F120008093C6008091C00086FFFCCF8091C00014
:10F1300080648093C000089520E030E028173907EC
:10F1400009F40895EFECF7E03197F1F700C0000003
:10F150002F5F3F4FF3CFCDB7DEB7C452D1400FB6CC
:10F16000F894DEBF0FBECDBF01E20EBF0FEF0DBFA3
:10F1700011B812B817B818B880EF8AB98CE78BB9F4
:10F1800081E08DB980E48EB910BA11BA13BA84E067
:10F1900084BB109201011092020180E88093040167
:10F1A00010920501109207011092080110920A01B5
:10F1B00010920B0194B7F894A89514BE809160004A
:10F1C00088618093600010926000789493FF05C07E
:10F1D000E0910002F091010219958BB18F7C8BB9FF
:10F1E0008091C00082608093C00080E18093C40061
:10F1F00088E18093C100000000E010E06801760122
:10F20000560187EC882E8BE1982E90E2792E809122
:10F21000C00087FD33C0012B79F05D98000080911C
:10F22000C0008D7F8093C00081E180935700E895F6
:10F23000EE27FF270994FFCF25E02A95F1F700007C
:10F240003FEFC31AD30AE30AF30A81E041E2C4168E
:10F250004EE4D406E104F10408F480E0082F10E045
:10F26000B601C7019401A5010F94AEFB672B682B73
:10F27000692B69F68BB187258BB9C9CF012B69F64C
:10F280008091C60020E030E0CD5DDE4F198218820B
:10F29000C352D1404901540124013401CE5DDE4FF7
:10F2A0001882C252D140C12C2AC00197A040B04060
:10F2B00069F4FC01ABBF87919791019619F0EE2795
:10F2C000FF27099481E092E1AAE7B0E04091C000F5
:10F2D00047FFEBCF8091C600E4E0DE1609F45AC088
:10F2E000F5E0DF1690F412E0E12EDE14E9F1B3E070
:10F2F000FB2EDF1409F444C041E0D41609F18B3130
:10F3000009F052C0DD24D39451C095E0D9124AC00F
:10F31000CD5DDE4F48815981C352D1404F5F5F4F71
:10F32000CD5DDE4FE881F981C352D140EC0FFD1F66
:10F330008183C8262417350781F496E0D92E0DC0A5
:10F34000C826CE5DDE4F8883C252D140CD5DDE4FF0
:10F3500048815981C352D140DE2CCD5DDE4F5983A7
:10F360004883C352D140AECF382F20E0C826CD5DB0
:10F37000DE4F48815981C352D140F3E0DF2EEDCFFB
:10F38000282BC826CD5DDE4F48815981C352D1401C
:10F39000DE2EE3CF8E3041F4C82640E050E065E039
:10F3A000D62EDBCFC81621F08C2DD12CC82E8ACFBB
:10F3B0002981233109F430C1C8F4263009F41DC174
:10F3C00058F4223089F0233009F4D4C0213009F4F4
:10F3D000BAC080EC8A831EC1213109F4DFC022311A
:10F3E00009F402C12031A9F7D12CDAC02A3109F47D
:10F3F000EAC008F03BC0263121F030F5243109F095
:10F400000BC18A819B819827892798278C010D5FE2
:10F410001F4F1A82243109F06AC1DE011196F201F0
:10F420006BBE27913791FD0112962D933C9322E0FC
:10F43000420E511C611C711C02971197009779F7BD
:10F4400034961082D12C2CC0283109F0C2CF8B8188
:10F45000803509F0C5C08C81883009F0BDC089E0D5
:10F46000E2E0F0E080935700E491A4C02B3109F46E
:10F470009BC02D3109F0ADCF9D81903309F051C073
:10F480008F81EEE1813018F009F45BC0E1E0EE839A
:10F490001A821B829C831D821F82D12C07E010E000
:10F4A0008BE10F9490F8CE5DDE4F8881C252D1403F
:10F4B0000F9490F8812F0F9490F8CE5DDE4FC880A6
:10F4C000C252D140C126802F0F9490F8C0268EE002
:10F4D0000F9490F885E1C82681E0282E312C2C0E5F
:10F4E0003D1E200E311E8E010F5F1F4F201631066C
:10F4F00009F02CC18C2D0F9490F8CE5DDE4FF88171
:10F50000C252D140FF5FCE5DDE4FF883C252D14080
:10F510008BB190E289278BB9D1107FCE20E030E00B
:10F52000D1CE89E0E0E0F0E0903539F0E0E09835C8
:10F5300009F0ADCF89E0E3E0F0E080935700E4917B
:10F54000A6CFE8E9A4CF1A8288E08B8381E48C837C
:10F5500086E58D8382E58E8389E48F8383E58887C2
:10F5600080E589878FE58A8782E38B87D12C0BE042
:10F5700010E096CF8A81813959F0823959F080396B
:10F5800059F080E08B831A82D12C03E010E088CF01
:10F5900082E0F8CF8AE0F6CF8FE0F4CFDD24D39479
:10F5A0001A8202E010E07CCF8D81EEE1813010F014
:10F5B00041F0E1E0EB831A821C82D12C04E010E0E0
:10F5C0006FCFE8E9F7CF1A8289E0E1E0F0E08093BD
:10F5D000570084918B83F0CF89E0E0E0F0E042CFE8
:10F5E00089E0E3E0F0E03ECF80EC8A83D12C02E0BA
:10F5F00010E0A12CB12C450153CF6A817B818C8115
:10F600009D810F94D0FB2B013C01440C551C661CC2
:10F61000771C1A82D12CC5CFCA80DB80DC24CD2494
:10F62000DC24233109F03DC0A0EE9A16A3E0AA061F
:10F63000B10468F483E0F401ABBE80935700E89511
:10F6400007B600FCFDCFEFEF9E1AAE0ABE0AC2015C
:10F65000D301BE01655F7F4F41E0FB012081318115
:10F660006E5F7F4F0901FC01ABBF40935700E895E7
:10F6700011240296A11DB11DF2E0CF1AD10869F73D
:10F6800025E0F2016BBE20935700E89507B600FC19
:10F69000FDCF21E120935700E8951A822C013D010E
:10F6A000B9CFC201D301B695A795979587951C014F
:10F6B0007601E80EF91E8E01055F1F4F2E143F04E0
:10F6C00061F4C601A0E0B0E0880F991FAA1FBB1F1C
:10F6D000840D951DA61DB71DE0CFF80161918F0126
:10F6E000C1010F94D7FBFFEF2F1A3F0AE7CFFE01AE
:10F6F00031969F01280F391FA201B30141BDC52ECC
:10F70000D62EE72EF12CC25EDE4FC882D982EA8265
:10F71000FB82CE51D14052BD4F5F5F4F6F4F7F4F45
:10F72000F89AA0B5A2833196E217F30739F7FE01E4
:10F730003396E80FF91F0197A0E0B0E00196A11DF4
:10F74000B11D480E591E6A1E7B1E7BCEF801F1903A
:10F750008F018F2D0F9490F8CF24C8CEA1E21A2EDE
:10F76000AA1BBB1BFD010DC0AA1FBB1FEE1FFF1F65
:10F77000A217B307E407F50720F0A21BB30BE40BB5
:10F78000F50B661F771F881F991F1A9469F76095FC
:10F790007095809590959B01AC01BD01CF010895B6
:10F7A0006927962769277827872778270895262F9E
:10F7B000F999FECF1FBA92BD81BD20BD0FB6F89456
:0EF7C000FA9AF99A0FBE01960895F894FFCFB9
:040000033000F000D9
:00000001FF
