:020000023000CC
:10E000000D948AF10D94A6F10D94A6F10D94A6F14C
:10E010000D94A6F10D94A6F10D94A6F10D94A6F120
:10E020000D94A6F10D94A6F10D94A6F10D94A6F110
:10E030000D94A6F10D94A6F10D94A6F10D94A6F100
:10E040000D94A6F10D94A6F10D94A6F10D94A6F1F0
:10E050000D94A6F10D94A6F10D94A6F10D94A6F1E0
:10E060000D94A6F10D94A6F10D94A6F10D94A6F1D0
:10E070000D94A6F10D94A6F10D94A6F10D94A6F1C0
:10E080000D94A6F10D94A6F10D94A6F10D94A6F1B0
:10E090000D94A6F10D94A6F10D94A6F10D94A6F1A0
:10E0A0000D94A6F10D94A6F10D94A6F10D94A6F190
:10E0B0000D94A6F10D94A6F10D94A6F10D94A6F180
:10E0C0000D94A6F10D94A6F10D94A6F10D94A6F170
:10E0D0000D94A6F10D94A6F10D94A6F10D94A6F160
:10E0E0000D94A6F12A00593D506F727420626C693C
:10E0F0006E6B00563D73686F7720696E746572723F
:10E1000075707420566563746F727300523D447568
:10E110006D702052414D00513D51756974004C3D68
:10E120004C69737420492F4F20506F7274730048EC
:10E130003D48656C7000463D44756D7020464C410D
:10E14000534800453D44756D7020454550524F4D34
:10E1500000423D426C696E6B204C454400403D4599
:10E160004550524F4D2074657374003F3D435055E8
:10E1700020737461747300303D5A65726F2061645E
:10E18000647200504F5254004545206572722063FE
:10E190006E743D0052656164696E672045450057A5
:10E1A00072697474696E672045450020004D75736F
:10E1B000742062652061206C657474657200506F14
:10E1C0007274206E6F7420737570706F72746564F2
:10E1D000005768617420706F72743A006A6D702025
:10E1E00000726A6D702020006E6F20766563746F18
:10E1F00072005623202020414444522020206F707A
:10E2000020636F64652020202020696E737472750E
:10E210006374696F6E2061646472202020496E749B
:10E220006572727570740031352E322E3000322EC8
:10E23000322E3100417072202037203230323600C9
:10E240004C6F636B20667573652020203D20004570
:10E2500078742066757365202020203D2000486971
:10E26000676820667573652020203D20004C6F771D
:10E270002066757365202020203D200043505520E6
:10E2800049442020202020203D20004743432056A1
:10E29000657273696F6E203D2000415652204C69B3
:10E2A0006243205665723D20005F5F4156525F41D8
:10E2B0005243485F5F3D20004350552054797065BC
:10E2C000202020203D2000436F6D70696C65642024
:10E2D0006F6E203D20004875683F00426F6F746C80
:10E2E0006F616465723E0041726475696E6F20658E
:10E2F00078706C6F7265722073746B353030563283
:10E30000206279204D4C530041546D656761323570
:10E310003630000011241FBE01E00CBFCFEFD1E268
:10E32000DEBFCDBF22E0A0E0B2E001C01D92AE3062
:10E33000B207E1F701E20EBF0FEF0DBF11241FBEC0
:10E340000D94DEF20F94DEF20D9481FB0D9400F03B
:10E350008093C6008091C00086FFFCCF8091C000F2
:10E3600080648093C00008958091C00087FFFCCF37
:10E370008091C600089520E030E02817390709F49D
:10E380000895EFECF7E03197F1F700C000002F5F40
:10E390003F4FF3CFCF93DF93EC01C60FD11DCE01DA
:10E3A000A0E0B0E0FC01ABBF8691811521F0219681
:10E3B0000F94A8F1F4CFDF91CF9108958DE00F94E1
:10E3C000A8F18AE00D94A8F1CF93DF930F92CDB717
:10E3D000DEB7898360E083E891EE0F94CAF189810A
:10E3E0000F94A8F10F90DF91CF910D94DEF10F946F
:10E3F000CAF10D94DEF1CF93DF93EC018881811592
:10E4000021F021960F94A8F1F9CFDF91CF910895D3
:10E41000CF93C82F982F92959F7080E3890F8A33EE
:10E4200010F087E3890F0F94A8F1CF7080E38C0F71
:10E430008A3310F087E38C0FCF910D94A8F14F929F
:10E440005F926F927F929F92AF92BF92CF92DF9234
:10E45000EF92FF920F931F93CF93DF93CDB7DEB769
:10E4600065970FB6F894DEBF0FBECDBF8B8B6A01E8
:10E470007B0180E1982E81E0C816D104E806F10402
:10E4800018F08E2D0F9408F28D2D0F9408F20C2D9C
:10E490008C2D0F9408F280E20F94A8F18DE20F9476
:10E4A000A8F180E20F94A8F119825E01EFEFAE1A95
:10E4B000BE0A26013701AC8ABD8A005FFB89F130B4
:10E4C00009F440C0F23009F442C0F2016BBE16916B
:10E4D000812F0F9408F280E20F94A8F180EE810F53
:10E4E0008F3508F01EE2F50111935F01FFEF4F1A1F
:10E4F0005F0A6F0A7F0A0411E1CF80E1C80ED11CC8
:10E50000E11CF11C198A8C899D890F94FBF10F94F1
:10E51000DEF19A9409F0AFCF65960FB6F894DEBF9E
:10E520000FBECDBFDF91CF911F910F91FF90EF9064
:10E53000DF90CF90BF90AF909F907F906F905F9053
:10E540004F900895C2010F946BFB182FC1CFF201B9
:10E550001081BECF0F931F93CF93DF93EC018B01FC
:10E56000853691051CF4633071054CF0CE0164E6EC
:10E5700070E00F941AFB80E3860F0F94A8F1CB3064
:10E58000D1051CF4023011056CF0CE0164E670E098
:10E590000F941AFB6AE070E00F941AFB80E3860F79
:10E5A0000F94A8F1CE016AE070E00F941AFB805D31
:10E5B000DF91CF911F910F910D94A8F1CDB7DEB7E8
:10E5C000C553D1400FB6F894DEBF0FBECDBF01E2F8
:10E5D0000EBF0FEF0DBF94B7F894A89514BE8091AD
:10E5E000600088618093600010926000789493FFCF
:10E5F00005C0E0910C02F0910D021995279A2F9A0F
:10E600008091C00082608093C00080E18093C4004C
:10E6100088E18093C100000000E010E0680176010D
:10E62000560137EC832E3BE1932E8091C00087FD8D
:10E6300038C0012BA1F027982F9884E690E00F9422
:10E64000BBF100008091C0008D7F8093C00081E10C
:10E6500080935700E895EE27FF270994FFCF25E028
:10E660002A95F1F700003FEFC31AD30AE30AF30A31
:10E6700081E041E2C4164EE4D406E104F10408F45A
:10E6800080E0082F10E0B601C7019401A5010F94A6
:10E690002EFB672B682B692B41F685B1805885B915
:10E6A000C4CF012B41F68091C600C55DDE4F1982B3
:10E6B0001882CB52D140212C312C9101C95DDE4F03
:10E6C00019821882C752D140CD5DDE4F188219825F
:10E6D0001A821B82C352D14021013101CE5DDE4F2F
:10E6E0001882C252D140810117C00197A040B040AA
:10E6F00069F4FC01ABBF87919791019619F0EE2761
:10E70000FF27099481E092E1AAE7B0E04091C000C0
:10E7100047FFEBCF8091C600C55DDE4FA881B98170
:10E72000CB52D1401196C55DDE4FB983A883CB5241
:10E73000D140813209F019C51A9708F03CC7BFEFE4
:10E740002B1A3B0AE3E02E16310409F065C725E0D9
:10E75000222E312C09E110E081E20F94A8F1015042
:10E760001040D1F70F94DEF1F1E02F1A310891F744
:10E77000109208021092090210920A0210920B02E3
:10E7800010920402109205021092060210920702E3
:10E7900010920002109201021092020210920302E3
:10E7A00060E087EE92EE0F94F7F12AC1153409F478
:10E7B000DEC1163409F049C162E086E391EE0F94A0
:10E7C000F7F14091040250910502609106027091A8
:10E7D000070280E00F941FF28091040290910502DD
:10E7E000A0910602B09107029F5FAF4FBF4F809389
:10E7F000040290930502A0930602B093070200C1A1
:10E80000123509F444C218F51C3409F419C2113543
:10E8100009F01BC162E087E191EE0F94F7F111E07E
:10E820002981243109F47AC608F0F3C4263009F4AA
:10E8300041C608F0DEC4223009F4E6C4233009F4EE
:10E84000E0C5213009F4C6C580EC8A83DEC41635E4
:10E8500009F441C2193509F0F8C062E086EE90EE85
:10E860000F94F7F160E081ED91EE0F94CAF10F94EF
:10E87000B4F1182F1F75812F0F94A8F10F94DEF1BA
:10E880008FEB810F8A3108F06CC4163409F403C48D
:10E8900008F0A4C3133409F4D6C308F094C31134A8
:10E8A00009F0C1C38FEF81B98091C00087FFB3C366
:10E8B00012B84FC162E087E791EE0F94F7F1109222
:10E8C00004021092050210920602109207021092A2
:10E8D00008021092090210920A0210920B02109282
:10E8E000000210920102109202021092030288C0EC
:10E8F00062E08BE691EE0F94F7F160E087EE92EE26
:10E900000F94F7F160E087EC92EE0F94CAF160E0AB
:10E9100084E392EE0F94F7F160E088EB92EE0F94AF
:10E92000CAF160E088E093EE0F94F7F160E089EAC5
:10E9300092EE0F94CAF186E30F94A8F10F94DEF1E2
:10E9400060E08BE892EE0F94CAF160E087E292EE0D
:10E950000F94F7F160E08AE992EE0F94CAF160E05B
:10E960008EE292EE0F94F7F160E08CE792EE0F9456
:10E97000CAF18EE10F9408F288E90F9408F281E061
:10E980000F9408F20F94DEF160E08DE692EE0F94A2
:10E99000CAF129E0E0E0F0E02093570084910F9461
:10E9A00008F20F94DEF160E08EE592EE0F94CAF16A
:10E9B00029E0E3E0F0E02093570084910F9408F2FF
:10E9C0000F94DEF160E08FE492EE0F94CAF1E2E082
:10E9D000F0E039E03093570084910F9408F20F94DF
:10E9E000DEF160E080E492EE0F94CAF129E0E1E00C
:10E9F000F0E02093570084910F9408F20F94DEF119
:10EA000060E08BED92EE0F94CAF10F94B4F1182FE1
:10EA1000803608F01F751032C0F0812F0F94A8F1D6
:10EA200080E20F94A8F1183409F4CAC008F0E8CEC7
:10EA3000123409F483C008F0B9CE1F3309F458CF5B
:10EA4000103439F0103309F435CF60E086ED92EEE2
:10EA5000AACE62E08DE591EE0F94F7F160E08FE9C8
:10EA600091EE0F94F7F10F94DEF100E010E0C80191
:10EA700089519D41A0E0B0E0FC01ABBFF6903AE2C5
:10EA8000F31621F0011542E0140779F50F94DEF139
:10EA90000F94DEF160E084E991EE0F94F7F10F94AA
:10EAA000DEF1C12CD12C7601C70189519D41A0E036
:10EAB000B0E0FC01ABBF16911A3221F0E11492E0F4
:10EAC000F90629F50F94DEF10F94DEF160E088E895
:10EAD00091EE0F94CAF161E070E0C6010F94AAF2C2
:10EAE0000F94DEF10F94DEF1FACE6F2DC8010F9472
:10EAF00073FBF11008C060E08BEA91EE0F94CAF14D
:10EB00000F5F1F4FB4CF8F2D0F94A8F1F9CFC7011E
:10EB10000F946BFB082F81110EC060E08BEA91EE21
:10EB20000F94CAF1011719F05FEFC51AD50A8FEFDC
:10EB3000E81AF80AB9CF0F94A8F1F4CF62E081E5A2
:10EB400091EE0F94F7F1279A2F9A8091C00087FFDA
:10EB500003C00F94B4F154CF2F9884E690E00F9443
:10EB6000BBF12F9A84E690E00F94BBF1EECF62E008
:10EB700083E491EE0F94F7F140910002509101026D
:10EB8000609102027091030281E00F941FF2809164
:10EB9000000290910102A0910202B09103029F5FD6
:10EBA000AF4FBF4F9031A105B10508F098CE8093CB
:10EBB000000290930102A0930202B093030220CFBF
:10EBC00062E08FE291EE0F94F7F160E087E791EE5B
:10EBD0000F94F7F160E08BE691EE0F94F7F160E0AF
:10EBE0008DE591EE0F94F7F160E081E591EE0F94E1
:10EBF000F7F160E083E491EE0F94F7F160E086E3D3
:10EC000091EE0F94F7F160E08FE291EE0F94F7F13F
:10EC100060E08EE191EE0F94F7F160E087E191EE14
:10EC20000F94F7F160E08CE091EE0F94F7F160E063
:10EC300083EF90EE0F94F7F160E086EE90EEB3CDA7
:10EC400062E08EE191EE0F94F7F181E40F94E4F12C
:10EC500082E40F94E4F183E40F94E4F184E40F94EC
:10EC6000E4F185E40F94E4F186E40F94E4F187E4A1
:10EC70000F94E4F188E40F94E4F18AE40F94E4F152
:10EC80008BE40F94E4F18CE40F94E4F1B9CE62E0EC
:10EC90008CE091EE0F94F7F1409108025091090237
:10ECA00060910A0270910B0282E00F941FF2809132
:10ECB000080290910902A0910A02B0910B029F5F95
:10ECC000AF4FBF4F8093080290930902A0930A02AE
:10ECD000B0930B0295CE62E083EF90EE0F94F7F1C4
:10ECE00060E088E093EE0F94F7F160E082EF91EE40
:10ECF0000F94F7F1C75DDE4F19821882C952D140D7
:10ED0000C25EDE4F188219821A821B82CE51D14018
:10ED1000C25EDE4F288139814A815B81CE51D1406C
:10ED20005695479537952795C35DDE4F28833983E0
:10ED30004A835B83CD52D140C75DDE4F4881598104
:10ED4000C952D1404F5F5F4FC75DDE4F5983488343
:10ED5000C952D14062E070E0CA010F94AAF280E289
:10ED60000F94A8F18DE20F94A8F180E20F94A8F11E
:10ED700080E00F9408F2C35DDE4F8881CD52D14010
:10ED80000F9408F280E20F94A8F18DE30F94A8F19C
:10ED900080E20F94A8F1C25EDE4F88819981AA813A
:10EDA000BB81CE51D140FC01ABBF1691812E912C7D
:10EDB000A12CB12C0196A11DB11DFC01ABBF869108
:10EDC000282F30E0A501CF5CDE4F288339834A83AA
:10EDD0005B83C153D140C25EDE4F488159816A8155
:10EDE0007B81CE51D1404E5F5F4F6F4F7F4FFA0115
:10EDF0006BBF3691CB5CDE4F3883C553D140C25ECA
:10EE0000DE4F488159816A817B81CE51D1404D5F6F
:10EE10005F4F6F4F7F4FFA016BBF0691C25EDE4FAF
:10EE2000288139814A815B81CE51D1402C5F3F4F8F
:10EE30004F4F5F4FC25EDE4F288339834A835B8327
:10EE4000CE51D140CF5CDE4F288139814A815B8130
:10EE5000C153D140D22EE32EF42EC12E0F9408F2CE
:10EE600080E20F94A8F1812F0F9408F280E20F94B2
:10EE7000A8F1802F0F9408F280E20F94A8F1CB5CE8
:10EE8000DE4F8881C553D1400F9408F280E20F9481
:10EE9000A8F13FEFC316DC04E104F10489F460E05B
:10EEA00088EE91EE0F94CAF10F94DEF1C75DDE4F4C
:10EEB000A881B981C952D140D99709F029CFA0CDF5
:10EEC0009D2D80E0907CD501811540EC9407A10533
:10EED000B10571F55FE3D5227D01C35DDE4F88800A
:10EEE0009980AA80BB80CD52D1408C0C9D1CAE1C59
:10EEF000BF1C880C991CAA1CBB1C60E081EE91EE23
:10EF00000F94CAF18D2D0F9408F2812F0F9408F2FF
:10EF100080E20F94A8F18EE30F94A8F180E00F94A3
:10EF200008F2892D0F9408F2882D0F9408F2BCCFB7
:10EF30008EE0C8228EEFD8227D019CE0C91694E9AC
:10EF4000D906E104F10409F0AFCF7401EE0CFF1C07
:10EF50006D01A0EEEA22A1E0FA2280FCEA2A9501E6
:10EF6000102FCB5CDE4FB881C553D1400B2FCF5C47
:10EF7000DE4F88819981AA81BB81C153D14080FF36
:10EF800002C020E230E0C00ED11EE21EF31E460198
:10EF90005701880C991CAA1CBB1C60E08CED91EEFB
:10EFA0000F94CAF18E2D0F9408F28D2D0F9408F254
:10EFB0008C2D0F9408F280E20F94A8F18EE30F9449
:10EFC000A8F18A2DACCF143409F055C08FEF8AB95F
:10EFD0008091C00087FF47C01BB8BBCD1A3409F42D
:10EFE0008EC050F4173409F466C0183409F473C0A5
:10EFF00060E08EEB91EED7CB1B3409F494C01C3447
:10F00000B9F78FEF80930A018091C00087FF9FC0FE
:10F0100010920B019ECD82B1809582B988EC90E070
:10F020000F94BBF141CC8FEF84B98091C00087FF72
:10F0300002C015B88ECD85B1809585B988EC90E079
:10F040000F94BBF1F2CF8FEF87B98091C00087FF9B
:10F0500002C018B87ECD88B1809588B988EC90E060
:10F060000F94BBF1F2CF8BB180958BB988EC90E017
:10F070000F94BBF1ADCF8FEF8DB98091C00087FFAA
:10F0800002C01EB866CD8EB180958EB988EC90E036
:10F090000F94BBF1F2CF8FEF80BB8091C00087FF50
:10F0A00002C011BA56CD81B3809581BB88EC90E047
:10F0B0000F94BBF1F2CF8FEF83BB8091C00087FF2D
:10F0C00002C014BA46CD84B3809584BB88EC90E02E
:10F0D0000F94BBF1F2CF8FEF809301018091C000BC
:10F0E00087FF03C01092020134CD80910201809508
:10F0F0008093020188EC90E00F94BBF1EFCF8FEF8B
:10F10000809304018091C00087FF03C01092050125
:10F1100020CD8091050180958093050188EC90E0D9
:10F120000F94BBF1EFCF8FEF809307018091C00068
:10F1300087FF03C0109208010CCD809108018095D3
:10F140008093080188EC90E00F94BBF1EFCF8091A1
:10F150000B01809580930B0188EC90E00F94BBF13C
:10F1600053CF60E08DEA91EE1ECB143029F108F008
:10F1700031C21230A1F01330C9F0113031F0212C1E
:10F18000312C8B3159F110E0BDCA212C312C0827CC
:10F19000CE5DDE4F8883C252D14012E0B3CA212C2B
:10F1A000312C382F20E0082713E0ACCA212C312C59
:10F1B000282B082714E0A6CA8E3009F008C20827B9
:10F1C000212C312CC95DDE4F19821882C752D140E3
:10F1D00015E098CA0813D7CF10E022CB0BE111E05D
:10F1E00091CAC95DDE4F39832883C752D14016E0EA
:10F1F00089CA223109F450C12331C9F0203121F0EC
:10F20000213109F021CB11E01A8292E0E92EF12C94
:10F210008EC0293109F42DC108F064C0263109F4EB
:10F220007DC1283109F410C1253109F00DCBEA80E8
:10F23000FB80FE24EF24FE24233109F048C1CD5D7C
:10F24000DE4F288139814A815B81C352D140303CF5
:10F2500083E048075105E0F483E0F9014BBF809358
:10F260005700E89507B600FCFDCFCD5DDE4F288145
:10F2700039814A815B81C352D1403F5F4F4F5F4F1D
:10F28000CD5DDE4F288339834A835B83C352D140EF
:10F29000C201D301BE01655F7F4F41E0FB012081C8
:10F2A00031816E5F7F4F0901FC01ABBF4093570076
:10F2B000E89511240296A11DB11D32E0E31AF10870
:10F2C00069F725E0F2016BBE20935700E89507B679
:10F2D00000FCFDCF21E120935700E8951A822C0114
:10F2E0003D0193CF2B3109F4A0C02D3161F02A31BB
:10F2F00009F0AACA1A8289E0E1E0F0E080935700A1
:10F3000084918B839AC09D81903309F051C08F8185
:10F31000EEE1813018F009F45BC0E1E0EE831A827F
:10F320001B829C831D821F82E7E0EE2EF12C8BE175
:10F330000F94A8F1CE5DDE4F8881C252D1400F9468
:10F34000A8F18F2D0F94A8F1CE5DDE4F0881C25237
:10F35000D1400F258E2D0F94A8F10E258EE00F942D
:10F36000A8F185E1082781E0C82ED12CCC0EDD1E46
:10F37000CE0CDF1CAE014F5F5F4F7A01CE14DF046D
:10F3800009F011C1802F0F94A8F185B1805885B97B
:10F39000111151C9CE5DDE4FB881C252D140BF5F5D
:10F3A000CE5DDE4FB883C252D14020E030E0AAC922
:10F3B00089E0E0E0F0E0903539F0E0E0983509F0E0
:10F3C000ADCF89E0E3E0F0E080935700E491A6CF71
:10F3D000E8E9A4CF1A8288E08B8381E48C8386E5F8
:10F3E0008D8382E58E8389E48F8383E5888780E53A
:10F3F00089878FE58A8782E38B877BE0E72EF12C74
:10F4000096CF8A81813959F0823959F0803959F083
:10F4100080E08B831A8253E0E52EF12C88CF82E0C6
:10F42000F8CF8AE0F6CF8FE0F4CF8D81EEE1813026
:10F4300010F041F0E1E0EB831A821C8264E0E62EDA
:10F44000F12C75CFE8E9F7CF8B81803571F48C8191
:10F45000883039F489E0E2E0F0E080935700E491ED
:10F46000EACF89E0E0E0F0E0F8CF89E0E3E0F0E027
:10F47000F4CF8D81982F90959C739D83836C99E038
:10F48000E1E0F0E0082E90935700E89507B600FC05
:10F49000FDCF1A821B82BFCF80EC8A8342E0E42E2C
:10F4A000F12CCD5DDE4F188219821A821B82C35265
:10F4B000D1403DCF6A817B818C819D810F9450FB2F
:10F4C0002B013C01440C551C661C771C9DCEC201CF
:10F4D000D301B695A795979587954C015701A80E2E
:10F4E000B91E6E014BE0C40ED11C8A149B0461F45A
:10F4F000C701A0E0B0E0880F991FAA1FBB1F840DB1
:10F50000951DA61DB71DEACED6016D916D01C401F2
:10F510000F9473FBBFEF8B1A9B0AE7CF8A819B8105
:10F520009827892798277C01E3E0EE0EF11C1A82C8
:10F530002431B1F4DE011196F2016BBE27913791AF
:10F54000FD0112962D933C9322E0420E511C611C4A
:10F55000711C02971197009779F734961082E7CEC5
:10F56000FE0131969F01280F391FA201B30141BD51
:10F5700052BD4F5F5F4F6F4F7F4FF89AA0B5A28388
:10F5800031962E173F0799F7FE013396E80FF91FC2
:10F590000197A0E0B0E00196A11DB11D480E591ED3
:10F5A0006A1E7B1EDBCFD701BD907D018B2D0F9492
:10F5B000A8F10B25E3CE143051F060F4123009F4B9
:10F5C000EECD133009F4F2CD113009F4DECD212C4B
:10F5D000312CD9CD212C312C153009F0FBCDC95D52
:10F5E000DE4F48815981C752D1404F5F5F4FC95D9F
:10F5F000DE4FE881F981C752D140EC0FFD1F8183B6
:10F6000008274217530709F4ECCDC95DDE4F598333
:10F610004883C752D140DCCD143009F4B4CDE0F6B4
:10F62000123009F4BECD133009F4C2CD113009F403
:10F63000AECDA9CD97FB072E16F4009407D077FD29
:10F6400009D00F9457FB07FC05D03EF490958195A7
:10F650009F4F0895709561957F4F0895A1E21A2EEE
:10F66000AA1BBB1BFD010DC0AA1FBB1FEE1FFF1F66
:10F67000A217B307E407F50720F0A21BB30BE40BB6
:10F68000F50B661F771F881F991F1A9469F76095FD
:10F690007095809590959B01AC01BD01CF010895B7
:10F6A0006927962769277827872778270895AA1B2F
:10F6B000BB1B51E107C0AA1FBB1FA617B70710F05D
:10F6C000A61BB70B881F991F5A95A9F7809590958F
:10F6D000BC01CD010895F999FECF92BD81BDF89A84
:10F6E000992780B50895262FF999FECF1FBA92BDAC
:10F6F00081BD20BD0FB6F894FA9AF99A0FBE019613
:06F700000895F894FFCF0C
:040000033000E000E9
:00000001FF
