:020000023000CC
:10E000000D948AF10D94A6F10D94A6F10D94A6F14C
:10E010000D94A6F10D94A6F10D94A6F10D94A6F120
:10E020000D94A6F10D94A6F10D94A6F10D94A6F110
:10E030000D94A6F10D94A6F10D94A6F10D94A6F100
:10E040000D94A6F10D94A6F10D94A6F10D94A6F1F0
:10E050000D94A6F10D94A6F10D94A6F10D94A6F1E0
:10E060000D94A6F10D94A6F10D94A6F10D94A6F1D0
:10E070000D94A6F10D94A6F10D94A6F10D94A6F1C0
:10E080000D94A6F10D94A6F10D94A6F10D94A6F1B0
:10E090000D94A6F10D94A6F10D94A6F10D94A6F1A0
:10E0A0000D94A6F10D94A6F10D94A6F10D94A6F190
:10E0B0000D94A6F10D94A6F10D94A6F10D94A6F180
:10E0C0000D94A6F10D94A6F10D94A6F10D94A6F170
:10E0D0000D94A6F10D94A6F10D94A6F10D94A6F160
:10E0E0000D94A6F12A00593D506F727420626C693C
:10E0F0006E6B00563D73686F7720696E746572723F
:10E1000075707420566563746F727300523D447568
:10E110006D702052414D00513D51756974004C3D68
:10E120004C69737420492F4F20506F7274730048EC
:10E130003D48656C7000463D44756D7020464C410D
:10E14000534800453D44756D7020454550524F4D34
:10E1500000423D426C696E6B204C454400403D4599
:10E160004550524F4D2074657374003F3D435055E8
:10E1700020737461747300303D5A65726F2061645E
:10E18000647200504F5254004545206572722063FE
:10E190006E743D0052656164696E672045450057A5
:10E1A00072697474696E672045450020004D75736F
:10E1B000742062652061206C657474657200506F14
:10E1C0007274206E6F7420737570706F72746564F2
:10E1D000005768617420706F72743A006A6D702025
:10E1E00000726A6D702020006E6F20766563746F18
:10E1F00072005623202020414444522020206F707A
:10E2000020636F64652020202020696E737472750E
:10E210006374696F6E2061646472202020496E749B
:10E220006572727570740031352E322E3000322EC8
:10E23000322E3100417072202037203230323600C9
:10E240004C6F636B20667573652020203D20004570
:10E2500078742066757365202020203D2000486971
:10E26000676820667573652020203D20004C6F771D
:10E270002066757365202020203D200043505520E6
:10E2800049442020202020203D20004743432056A1
:10E29000657273696F6E203D2000415652204C69B3
:10E2A0006243205665723D20005F5F4156525F41D8
:10E2B0005243485F5F3D20004350552054797065BC
:10E2C000202020203D2000436F6D70696C65642024
:10E2D0006F6E203D20004875683F00426F6F746C80
:10E2E0006F616465723E0041726475696E6F20658E
:10E2F00078706C6F7265722073746B353030563283
:10E30000206279204D4C530041546D656761323570
:10E310003630000011241FBE01E00CBFCFEFD1E268
:10E32000DEBFCDBF22E0A0E0B2E001C01D92AE3062
:10E33000B207E1F701E20EBF0FEF0DBF11241FBEC0
:10E340000D94DEF20F94DEF20D94D8FB0D9400F0E4
:10E350008093C6008091C00086FFFCCF8091C000F2
:10E3600080648093C00008958091C00087FFFCCF37
:10E370008091C600089520E030E02817390709F49D
:10E380000895EFECF7E03197F1F700C000002F5F40
:10E390003F4FF3CFCF93DF93EC01C60FD11DCE01DA
:10E3A000A0E0B0E0FC01ABBF8691811521F0219681
:10E3B0000F94A8F1F4CFDF91CF9108958DE00F94E1
:10E3C000A8F18AE00D94A8F1CF93DF930F92CDB717
:10E3D000DEB7898360E083E891EE0F94CAF189810A
:10E3E0000F94A8F10F90DF91CF910D94DEF10F946F
:10E3F000CAF10D94DEF1CF93DF93EC018881811592
:10E4000021F021960F94A8F1F9CFDF91CF910895D3
:10E41000CF93C82F982F92959F7080E3890F8A33EE
:10E4200010F087E3890F0F94A8F1CF7080E38C0F71
:10E430008A3310F087E38C0FCF910D94A8F14F929F
:10E440005F926F927F929F92AF92BF92CF92DF9234
:10E45000EF92FF920F931F93CF93DF93CDB7DEB769
:10E4600065970FB6F894DEBF0FBECDBF8B8B6A01E8
:10E470007B0180E1982E81E0C816D104E806F10402
:10E4800018F08E2D0F9408F28D2D0F9408F20C2D9C
:10E490008C2D0F9408F280E20F94A8F18DE20F9476
:10E4A000A8F180E20F94A8F119825E01EFEFAE1A95
:10E4B000BE0A26013701AC8ABD8A005FFB89F130B4
:10E4C00009F440C0F23009F442C0F2016BBE16916B
:10E4D000812F0F9408F280E20F94A8F180EE810F53
:10E4E0008F3508F01EE2F50111935F01FFEF4F1A1F
:10E4F0005F0A6F0A7F0A0411E1CF80E1C80ED11CC8
:10E50000E11CF11C198A8C899D890F94FBF10F94F1
:10E51000DEF19A9409F0AFCF65960FB6F894DEBF9E
:10E520000FBECDBFDF91CF911F910F91FF90EF9064
:10E53000DF90CF90BF90AF909F907F906F905F9053
:10E540004F900895C2010F94C2FB182FC1CFF20162
:10E550001081BECF0F931F93CF93DF93EC018B01FC
:10E56000853691051CF4633071054CF0CE0164E6EC
:10E5700070E00F9471FB80E3860F0F94A8F1CB300D
:10E58000D1051CF4023011056CF0CE0164E670E098
:10E590000F9471FB6AE070E00F9471FB80E3860FCB
:10E5A0000F94A8F1CE016AE070E00F9471FB805DDA
:10E5B000DF91CF911F910F910D94A8F1CDB7DEB7E8
:10E5C000C953D1400FB6F894DEBF0FBECDBF01E2F4
:10E5D0000EBF0FEF0DBF579A94B7F894A89514BECD
:10E5E0008091600088618093600010926000789450
:10E5F00093FF05C0E0910C02F0910D021995279A46
:10E600002F9A8091C00082608093C00080E1809347
:10E61000C40088E18093C100000000E010E06801C0
:10E6200076015601A7EC8A2EABE19A2E8091C000AC
:10E6300087FD3AC0012BA9F05F9A27982F9884E6AE
:10E6400090E00F94BBF100008091C0008D7F80931B
:10E65000C00081E180935700E895EE27FF270994D9
:10E66000FFCF25E02A95F1F700003FEFC31AD30A48
:10E67000E30AF30A81E041E2C4164EE4D406E10461
:10E68000F10408F480E0082F10E0B601C7019401FE
:10E69000A5010F9485FB672B682B692B09F0C6CF6A
:10E6A00085B1805885B9C2CF012B09F0C5CF5F98DD
:10E6B0008091C600C45DDE4F19821882CC52D140D1
:10E6C000212C312C9101C75DDE4F19821882C9526D
:10E6D000D140CB5DDE4F188219821A821B82C5524F
:10E6E000D14021013101CC5DDE4F1882C452D140AE
:10E6F000D12C912CBE016F5F7F4FC25EDE4F7983BC
:10E700006883CE51D140C25EDE4F7881CE51D14078
:10E71000C85CDE4F7883C853D140C15EDE4F98811C
:10E72000CF51D140C75CDE4F9883C953D140C45DFF
:10E73000DE4FE881F981CC52D1403196C45DDE4F85
:10E74000F983E883CC52D140813209F03CC53A9735
:10E7500008F096C7FFEF2F1A3F0A43E02416310452
:10E7600009F0A8C7F5E02F2E312C09E110E081E275
:10E770000F94A8F101501040D1F70F94DEF151E051
:10E78000251A310891F7109208021092090210928E
:10E790000A0210920B0210920402109205021092CB
:10E7A00006021092070210920002109201021092CB
:10E7B00002021092030260E087EE92EE0F94F7F1EE
:10E7C00043C10197A040B04069F4FC01ABBF879101
:10E7D0009791019619F0EE27FF27099481E092E1C5
:10E7E000AAE7B0E04091C00047FFEBCF8091C600A0
:10E7F0009ECF153409F4DFC1163409F04AC162E036
:10E8000086E391EE0F94F7F14091040250910502D6
:10E81000609106027091070280E00F941FF28091D0
:10E82000040290910502A0910602B09107029F5F39
:10E83000AF4FBF4F8093040290930502A09306024E
:10E84000B093070201C1123509F445C220F51C340A
:10E8500009F41AC2113509F01CC162E087E191EE9A
:10E860000F94F7F1992493942981243109F4BCC6BB
:10E8700008F02FC5263009F483C608F01AC52230E7
:10E8800009F423C5233009F425C6213009F40CC648
:10E8900080EC8A831BC5163509F441C2193509F08D
:10E8A000F8C062E086EE90EE0F94F7F160E081ED43
:10E8B00091EE0F94CAF10F94B4F1182F1F75812FA8
:10E8C0000F94A8F10F94DEF18FEB810F8A3108F0DD
:10E8D00076C4163409F40DC408F0AEC3133409F439
:10E8E000E0C308F09EC3113409F0CBC38FEF81B9A8
:10E8F0008091C00087FFBDC312B84FC162E087E7B7
:10E9000091EE0F94F7F1109204021092050210920A
:10E910000602109207021092080210920902109249
:10E920000A0210920B021092000210920102109241
:10E9300002021092030288C062E08BE691EE0F940F
:10E94000F7F160E087EE92EE0F94F7F160E087EC6C
:10E9500092EE0F94CAF160E084E392EE0F94F7F127
:10E9600060E088EB92EE0F94CAF160E088E093EEED
:10E970000F94F7F160E089EA92EE0F94CAF186E312
:10E980000F94A8F10F94DEF160E08BE892EE0F9403
:10E99000CAF160E087E292EE0F94F7F160E08AE955
:10E9A00092EE0F94CAF160E08EE292EE0F94F7F1CE
:10E9B00060E08CE792EE0F94CAF18EE10F9408F2BA
:10E9C00088E90F9408F281E00F9408F20F94DEF1C9
:10E9D00060E08DE692EE0F94CAF129E0E0E0F0E00D
:10E9E0002093570084910F9408F20F94DEF160E0B9
:10E9F0008EE592EE0F94CAF129E0E3E0F0E0209377
:10EA0000570084910F9408F20F94DEF160E08FE4D8
:10EA100092EE0F94CAF129E0E2E0F0E02093570073
:10EA200084910F9408F20F94DEF160E080E492EE9E
:10EA30000F94CAF129E0E1E0F0E0209357008491BF
:10EA40000F9408F20F94DEF160E08BED92EE0F94DC
:10EA5000CAF10F94B4F1182F803608F01F751032E8
:10EA6000C0F0812F0F94A8F180E20F94A8F1183420
:10EA700009F4CAC008F0E7CE123409F483C008F0E4
:10EA8000B8CE1F3309F458CF103439F0103309F4DD
:10EA900035CF60E086ED92EE91CE62E08DE591EEAD
:10EAA0000F94F7F160E08FE991EE0F94F7F10F9476
:10EAB000DEF100E010E0C80189519D41A0E0B0E026
:10EAC000FC01ABBFF6903AE2F31621F0011542E0EB
:10EAD000140781F50F94DEF10F94DEF160E084E914
:10EAE00091EE0F94F7F10F94DEF1E12CF12C8701F8
:10EAF000C80189519D41A0E0B0E0FC01ABBFD690B8
:10EB00006AE2D61621F0011572E0170729F50F9475
:10EB1000DEF10F94DEF160E088E891EE0F94CAF127
:10EB200061E070E0C7010F94AAF20F94DEF10F9438
:10EB3000DEF1F9CE6F2DC8010F94CAFBF11008C0A9
:10EB400060E08BEA91EE0F94CAF10F5F1F4FB3CFD5
:10EB50008F2D0F94A8F1F9CFC8010F94C2FBC82ED6
:10EB600081110DC060E08BEA91EE0F94CAF1CD14D3
:10EB700019F05FEFE51AF50A0F5F1F4FB9CF0F9439
:10EB8000A8F1F5CF62E081E591EE0F94F7F1279AB5
:10EB90002F9A8091C00087FF03C00F94B4F154CF27
:10EBA0002F9884E690E00F94BBF12F9A84E690E0D2
:10EBB0000F94BBF1EECF62E083E491EE0F94F7F196
:10EBC0004091000250910102609102027091030293
:10EBD00081E00F941FF28091000290910102A091B8
:10EBE0000202B09103029F5FAF4FBF4F9031A1056A
:10EBF000B10508F098CE8093000290930102A09393
:10EC00000202B093030220CF62E08FE291EE0F94F4
:10EC1000F7F160E087E791EE0F94F7F160E08BE6A3
:10EC200091EE0F94F7F160E08DE591EE0F94F7F11E
:10EC300060E081E591EE0F94F7F160E083E491EEFE
:10EC40000F94F7F160E086E391EE0F94F7F160E046
:10EC50008FE291EE0F94F7F160E08EE191EE0F9468
:10EC6000F7F160E087E191EE0F94F7F160E08CE05E
:10EC700091EE0F94F7F160E083EF90EE0F94F7F1CF
:10EC800060E086EE90EE9ACD62E08EE191EE0F9418
:10EC9000F7F181E40F94E4F182E40F94E4F183E46A
:10ECA0000F94E4F184E40F94E4F185E40F94E4F12B
:10ECB00086E40F94E4F187E40F94E4F188E40F9480
:10ECC000E4F18AE40F94E4F18BE40F94E4F18CE432
:10ECD0000F94E4F1B9CE62E08CE091EE0F94F7F17D
:10ECE000409108025091090260910A0270910B0252
:10ECF00082E00F941FF28091080290910902A09186
:10ED00000A02B0910B029F5FAF4FBF4F8093080282
:10ED100090930902A0930A02B0930B0295CE62E091
:10ED200083EF90EE0F94F7F160E088E093EE0F949C
:10ED3000F7F160E082EF91EE0F94F7F100E010E060
:10ED4000C05EDE4F188219821A821B82C052D140E7
:10ED5000C05EDE4F288139814A815B81C052D1403B
:10ED60005695479537952795C25DDE4F28833983A1
:10ED70004A835B83CE52D1400F5F1F4F62E070E049
:10ED8000C8010F94AAF280E20F94A8F18DE20F94CB
:10ED9000A8F180E20F94A8F180E00F9408F2C25D20
:10EDA000DE4F8881CE52D1400F9408F280E20F945A
:10EDB000A8F18DE30F94A8F180E20F94A8F1C05E52
:10EDC000DE4F488159816A817B81C052D140FA016E
:10EDD0006BBF5691CA5CDE4F5883C653D140852E17
:10EDE000912CA12CB12CC05EDE4F88819981AA8123
:10EDF000BB81C052D1400196A11DB11DFC01ABBF2A
:10EE00008691282F30E0A501CE5CDE4F2883398320
:10EE10004A835B83C253D140C05EDE4F4881598133
:10EE20006A817B81C052D1404E5F5F4F6F4F7F4FF1
:10EE3000FA016BBF3691C95CDE4F3883C753D140AE
:10EE4000C05EDE4F488159816A817B81C052D140CA
:10EE50004D5F5F4F6F4F7F4FFA016BBF9691C55D5E
:10EE6000DE4F9883CB52D140C05EDE4F288139817E
:10EE70004A815B81C052D1402C5F3F4F4F4F5F4F63
:10EE8000C05EDE4F288339834A835B83C052D14002
:10EE9000CE5CDE4F488159816A817B81C253D1406B
:10EEA000D42EE52EF62EC82C0F9408F280E20F9493
:10EEB000A8F1CA5CDE4F8881C653D1400F9408F296
:10EEC00080E20F94A8F1C55DDE4F8881CB52D1401E
:10EED0000F9408F280E20F94A8F1C95CDE4F88819C
:10EEE000C753D1400F9408F280E20F94A8F15FEF6E
:10EEF000C516DC04E104F10461F460E088EE91EEF3
:10EF00000F94CAF10F94DEF10933110509F020CFF7
:10EF10009BCD9D2D80E0907CD501811560EC9607FE
:10EF2000A105B10571F57FE3D7227D01C25DDE4FFA
:10EF300088809980AA80BB80CE52D1408C0C9D1CC9
:10EF4000AE1CBF1C880C991CAA1CBB1C60E081EE87
:10EF500091EE0F94CAF18D2D0F9408F28C2D0F9421
:10EF600008F280E20F94A8F18EE30F94A8F180E0FC
:10EF70000F9408F2892D0F9408F2882D0F9408F24F
:10EF8000C1CF8EE0C8228EEFD8227D019CE0C91649
:10EF900094E9D906E104F10409F0B4CF7401EE0C50
:10EFA000FF1C6D01A0EEEA22A1E0FA2280FCEA2A11
:10EFB000C55DDE4FE881CB52D140A0E09E2FC95CF9
:10EFC000DE4FF881C753D1408F2FCE5CDE4F2881B2
:10EFD00039814A815B81C253D14020FF02C0A0E247
:10EFE000B0E0C80ED91EEA1EFB1E46015701880C70
:10EFF000991CAA1CBB1C60E08CED91EE0F94CAF129
:10F000008E2D0F9408F28D2D0F9408F28C2D0F94F5
:10F0100008F280E20F94A8F18EE30F94A8F18A2DF4
:10F02000A7CF143409F055C08FEF8AB98091C00082
:10F0300087FF47C01BB8B1CD1A3409F48EC050F415
:10F04000173409F466C0183409F473C060E08EEB1D
:10F0500091EEB4CB1B3409F494C01C34B9F78FEF94
:10F0600080930A018091C00087FF9FC010920B011E
:10F0700094CD82B1809582B988EC90E00F94BBF179
:10F0800037CC8FEF84B98091C00087FF02C015B8DC
:10F0900084CD85B1809585B988EC90E00F94BBF163
:10F0A000F2CF8FEF87B98091C00087FF02C018B8F8
:10F0B00074CD88B1809588B988EC90E00F94BBF14D
:10F0C000F2CF8BB180958BB988EC90E00F94BBF1B7
:10F0D000ADCF8FEF8DB98091C00087FF02C01EB801
:10F0E0005CCD8EB180958EB988EC90E00F94BBF129
:10F0F000F2CF8FEF80BB8091C00087FF02C011BAB2
:10F100004CCD81B3809581BB88EC90E00F94BBF12E
:10F11000F2CF8FEF83BB8091C00087FF02C014BA8B
:10F120003CCD84B3809584BB88EC90E00F94BBF118
:10F13000F2CF8FEF809301018091C00087FF03C061
:10F14000109202012ACD80910201809580930201E4
:10F1500088EC90E00F94BBF1EFCF8FEF8093040128
:10F160008091C00087FF03C01092050116CD8091E9
:10F17000050180958093050188EC90E00F94BBF128
:10F18000EFCF8FEF809307018091C00087FF03C00E
:10F190001092080102CD80910801809580930801AA
:10F1A00088EC90E00F94BBF1EFCF80910B0180953C
:10F1B00080930B0188EC90E00F94BBF153CF60E09B
:10F1C0008DEA91EEFBCA44E0941609F452C055E072
:10F1D000951688F462E09616E9F173E0971609F443
:10F1E00041C091E0991659F1212C312C8B3109F451
:10F1F00053C0912CF3CAA5E0212C312C9A1609F0AA
:10F2000047C0C75DDE4F48815981C952D1404F5F29
:10F210005F4FFE013196C75DDE4F68817981C9522B
:10F22000D140E60FF71F8083D82642175307C1F15C
:10F23000C75DDE4F59834883C952D14026C0212C77
:10F24000312CD826CC5DDE4F8883C452D140A2E059
:10F250009A2EC4CA212C312C382F20E0D826F3E076
:10F260009F2EBCCA212C312C282BD82674E0972E37
:10F27000B5CA8E3009F016C2D826212C312CC75DB4
:10F28000DE4F19821882C952D14065E0962EA6CA77
:10F29000D812AFCF912CE8CA5BE1D52E992E9ECA29
:10F2A000C75DDE4F39832883C952D14046E0942E92
:10F2B00095CA223109F457C12331C9F0203129F010
:10F2C000213109F0E5CA992493941A8202E010E0F2
:10F2D00092C0293109F434C108F069C0263109F41B
:10F2E00083C1283109F417C1253109F0D1CA0A8137
:10F2F0001B81102701271027233109F04EC1CB5D58
:10F30000DE4F88819981AA81BB81C552D140903C52
:10F31000A340B10520F583E0CB5DDE4F2881398124
:10F320004A815B81C552D140F9014BBF80935700A0
:10F33000E89507B600FCFDCFCB5DDE4F48815981D3
:10F340006A817B81C552D1405F5F6F4F7F4FCB5D3C
:10F35000DE4F488359836A837B83C552D140A20123
:10F36000B301CE010B96A1E0FC0120813181029610
:10F370000901FA016BBFA0935700E89511244E5F75
:10F380005F4F6F4F7F4F0250104071F785E0F201E1
:10F390006BBE80935700E89507B600FCFDCF81E176
:10F3A00080935700E8951A822A013B018FCF2B31B9
:10F3B00009F4A3C02D3161F02A3109F069CA1A821B
:10F3C00089E0E1E0F0E08093570084918B839DC059
:10F3D0009D81903309F056C08F81EEE1813018F0A5
:10F3E00009F460C0E1E0EE831A821B829C831D82D7
:10F3F0001F8207E010E08BE10F94A8F1CC5DDE4F97
:10F400008881C452D1400F94A8F1812F0F94A8F1A4
:10F41000CC5DDE4FD880C452D140D126802F0F94CE
:10F42000A8F1D0268EE00F94A8F135E1D32681E033
:10F43000E82EF12CEC0EFD1EE00EF11EC85CDE4F36
:10F440000881C853D140C75CDE4F1881C953D140F1
:10F45000E016F10609F00CC18D2D0F94A8F185B1CD
:10F46000805885B99110E8C8CC5DDE4FB881C45290
:10F47000D140BF5FCC5DDE4FB883C452D14020E0A5
:10F4800030E0ACC989E0E0E0F0E0903539F0E0E050
:10F49000983509F0A8CF89E0E3E0F0E080935700C9
:10F4A000E491A1CFE8E99FCF1A8288E08B8381E4C1
:10F4B0008C8386E58D8382E58E8389E48F8383E563
:10F4C000888780E589878FE58A8782E38B870BE0D1
:10F4D00010E091CF8A81813951F0823951F0803921
:10F4E00051F080E08B831A8203E010E084CF82E049
:10F4F000F9CF8AE0F7CF8FE0F5CF8D81EEE1813053
:10F5000010F039F0E1E0EB831A821C8204E010E095
:10F5100072CFE8E9F8CF8B81803571F48C81883027
:10F5200039F489E0E2E0F0E080935700E491EBCF1A
:10F5300089E0E0E0F0E0F8CF89E0E3E0F0E0F4CF4C
:10F540008D81982F90959C739D83836C99E0E1E069
:10F55000F0E0082E90935700E89507B600FCFDCF29
:10F560001A821B82C1CF80EC8A8302E010E0CB5D5F
:10F57000DE4F188219821A821B82C552D1403BCFBE
:10F580006A817B818C819D810F94A7FB2B013C01BB
:10F59000440C551C661C771C98CE62017301F694CE
:10F5A000E794D794C7945601C00ED11E7E015BE04C
:10F5B000E50EF11CAC14BD0469F420E030E0000F4E
:10F5C000111F221F331FA801B901440D551D661DCF
:10F5D000771DE9CED7016D917D01C5010F94CAFB5E
:10F5E000BFEFAB1ABB0AE6CF8A819B819827892798
:10F5F00098278C010D5F1F4F1A822431B1F4DE0170
:10F600001196F2016BBE27913791FD0112962D9351
:10F610003C9322E0420E511C611C711C0297119711
:10F62000009779F734961082E6CEFE0131969F015D
:10F63000280F391FA201B30141BD52BD4F5F5F4F7B
:10F640006F4F7F4FF89AA0B5A28331962E173F07D0
:10F6500099F7FE013396E80FF91F0197A0E0B0E09B
:10F660000196A11DB11D480E591E6A1E7B1EDBCFDF
:10F67000D801CD908D018C2D0F94A8F1DC24E8CE1B
:10F68000E4E09E1679F0F5E09F1678F442E09416D7
:10F6900009F4E0CD53E0951609F4E4CD61E0961647
:10F6A00009F4CDCD212C312CA4CD75E0212C312CA9
:10F6B0009716A5CD94E0991609F49BCDA5E09A166E
:10F6C00068F4B2E09B1609F4C7CDE3E09E1609F496
:10F6D000CBCDF1E09F1609F4B4CD8BCD45E0941667
:10F6E0008ECD97FB072E16F4009407D077FD09D036
:10F6F0000F94AEFB07FC05D03EF4909581959F4F8B
:10F700000895709561957F4F0895A1E21A2EAA1B66
:10F71000BB1BFD010DC0AA1FBB1FEE1FFF1FA217C1
:10F72000B307E407F50720F0A21BB30BE40BF50BBE
:10F73000661F771F881F991F1A9469F76095709547
:10F74000809590959B01AC01BD01CF01089569277B
:10F75000962769277827872778270895AA1BBB1B38
:10F7600051E107C0AA1FBB1FA617B70710F0A61BC1
:10F77000B70B881F991F5A95A9F780959095BC01E2
:10F78000CD010895F999FECF92BD81BDF89A9927D0
:10F7900080B50895262FF999FECF1FBA92BD81BD7D
:10F7A00020BD0FB6F894FA9AF99A0FBE0196089503
:04F7B000F894FFCFFB
:040000033000E000E9
:00000001FF
