:020000023000CC
:10FC0000112424B614BE80E0A3D011B812B817B8DE
:10FC100018B880EF8AB98CEF8BB981E08DB980E498
:10FC20008EB910BA11BA13BA84E084BB10920101E4
:10FC30001092020180E88093040110920501109255
:10FC400007011092080110920A0110920B0121FE87
:10FC5000D7C18DE07DD080E08093C40088E180939F
:10FC6000C1005F985CD0C82F8235D1F46CD0E0E041
:10FC7000FBEF93E09BBFA8959F017E2F67916F3F9D
:10FC800011F4E713FBCFF9019BBF19F083E093D088
:10FC900091D0F15091099BBF70F78FE839D0E2CF36
:10FCA0008D7FE1F449D0282EA0E0B2E038D08D93CA
:10FCB0002A12FCCFA0E0B2E046D0C1110DC0922DB7
:10FCC000F2BDE1BD8D9180BDFA9AF99A3196F9990C
:10FCD000FECF9150A9F7E1CF44D0DFCFC33041F43C
:10FCE0002BD0C82F30D0879113D0C150E1F7D5CF9A
:10FCF000C13061F421D0C82F26D0F2BDE1BDF89A01
:10FD000080B506D03196C150C1F7C7CF1CD0C5CF42
:10FD10009091C00095FFFCCF8093C60008955D9A36
:10FD2000559A8091C00087FFFCCF84FDFFCFA89536
:10FD30008091C6005D980895F2DFE82FF0DFF82F7C
:10FD4000EEDF8BBFECCFEBDF8032F9F780EAE0CF5C
:10FD500098E1909360008093600008956BBFFA0172
:10FD6000DC01E0707A2F6BB7FC3F83E0680740F559
:10FD700090E047915D91451391605F3F09F092607B
:10FD8000452345139460A713F4CFF1506BBFBA9588
:10FD900090FF16C092FF04C083E00DD091FF0AC00F
:10FDA00081E00D901D9007D03296A713FACFF15045
:10FDB00085E001D081E187BFE89517B610FCFDCF43
:04FDC000112408956D
:08FFF00005C120000000000023
:06FFFA000400AFCE6140DF
:040000033000FC00CD
:00000001FF
